:020000040800F2
:10000000A00600204D020008891000088110000899
:100010008510000865050008AD110008000000000B
:100020000000000000000000000000008D1000082B
:1000300069050008000000008B1000088F10000800
:1000400067020008670200086702000867020008EC
:1000500067020008670200086702000867020008DC
:1000600067020008670200086702000867020008CC
:1000700067020008670200086702000867020008BC
:1000800067020008670200086702000867020008AC
:10009000670200086702000867020008670200089C
:1000A000670200086702000867020008670200088C
:1000B000670200086702000867020008670200087C
:1000C000670200086702000867020008670200086C
:1000D000670200086702000867020008670200085C
:1000E000670200086702000867020008670200084C
:1000F000670200086702000867020008670200083C
:10010000670200086702000867020008670200082B
:10011000670200086702000867020008670200081B
:10012000670200086702000867020008670200080B
:1001300067020008670200086702000867020008FB
:1001400067020008670200086702000867020008EB
:1001500067020008670200086702000867020008DB
:1001600067020008670200086702000867020008CB
:10017000670200086702000867020008000000002C
:1001800067020008670200086702000867020008AB
:10019000670200086702000867020008670200089B
:1001A00067020008670200086702000800F002F812
:1001B00000F03CF80AA090E8000C82448344AAF1C5
:1001C0000107DA4501D100F031F8AFF2090EBAE8C3
:1001D0000F0013F0010F18BFFB1A43F0010318477B
:1001E0003810000058100000103A24BF78C878C1B9
:1001F000FAD8520724BF30C830C144BF04680C602D
:10020000704700000023002400250026103A28BF74
:1002100078C1FBD8520728BF30C148BF0B60704778
:100220001FB500F0E7FF1FBD10B510BD00F0A8F826
:100230001146FFF7F5FF00F0D7FF00F0C6F803B452
:10024000FFF7F2FF03BC00F0CDF80000094880473B
:1002500009480047FEE7FEE7FEE7FEE7FEE7FEE7A8
:10026000FEE7FEE7FEE7FEE704480549054A064BC0
:100270007047000049110008AD010008A0000020EF
:10028000A0060020A0020020A002002053EA020CD9
:1002900000F069802DE9F04B4FF00006002B1FBFE6
:1002A000B3FA83F503FA05F424FA05F65E4012BFAB
:1002B0001643B2FA82F502FA05F4C5F120051EBF15
:1002C00022FA05FC44EA0C04203556EA044C4FEAB5
:1002D000144418BF641C4FF000084FF0000990420E
:1002E00071EB030C39D3002919BFB1FA81F701FA78
:1002F00007F6B0FA80F700FA07F6C7F120071EBF2D
:1003000020FA07FC46EA0C062037B6FBF4FCA7EB04
:100310000507103F07F01F0BCBF120060CFA0BFB73
:100320002CFA06F644BFB3460026202FA4BF5E4633
:100330004FF0000B5BEA060C08BF4FF0010B19EB06
:100340000B09ABFB027C48EB0608C01B06FB02CC8A
:100350000BFB03CC71EB0C01C1E70B460246414697
:100360004846BDE8F08B13B54FF000004FF0000198
:10037000AFF30080BDE81C4070477047704770477E
:10038000754600F02BF8AE4605006946534620F04E
:100390000700854618B020B5FFF766FFBDE820408E
:1003A0004FF000064FF000074FF000084FF0000B31
:1003B00021F00701AC46ACE8C009ACE8C009ACE8E4
:1003C000C009ACE8C0098D46704710B50446AFF3CC
:1003D00000802046BDE81040FFF731BF004870475D
:1003E0003C00002001491820ABBEFEE726000200B9
:1003F000704710B5002000F0D7F8012000F0CDF8CC
:100400006FF07F4000F0B1F8002000F0C6F8012046
:1004100000F0CAF86FF07F4000F0A7F810BD0000B0
:1004200030B587B000BF002001901848006840F048
:100430000200164908600846006800F002000190BA
:1004400000BF00BF12480588124C18E0206928B18F
:1004500021890122606800F0C6F904E021890022A8
:10046000606800F0C0F920890290E06803900020E5
:100470000590049002A9606800F09EF81434281ECC
:10048000A5F10105E2D107B030BD000030380240CF
:10049000280000200000002070B586B006460C46FB
:1004A0001546012D0AD101940120029002200490EA
:1004B0000020039001A9304600F07EF83DB9019478
:1004C00000200290039001A9304600F075F806B0B4
:1004D00070BD000070B506460D461C480088864277
:1004E00002DB4FF0FF3070BD06EB8600184901EBD0
:1004F0008004022D03D12189606800F06BF9206926
:10050000A84201D10020EEE765B1012D04D0022DF3
:100510000ED0032D13D10CE021890122606800F078
:1005200062F90FE021890022606800F05CF909E0BF
:1005300008E0218900226068FFF7AEFF02E04FF07B
:10054000FF30D0E700BF25610020CCE72800002065
:100550000000002010B500F05FF900F09DFDFFF7EE
:100560005FFF10BD00BFFEE7704701B500BF0098F8
:10057000411E00910028FAD108BD00BFFEE710B56A
:10058000FFF7E8FF00F001F810BD10B5002000F003
:1005900004F8012000F001F810BD10B50446012157
:1005A0002046FFF797FF10BD10B5044600212046F6
:1005B000FFF790FF10BD0000F8B502460B4600257E
:1005C000002400200021E6E0012606FA01F51E685D
:1005D00006EA0504AC4273D15E68022E02D05E6862
:1005E000122E13D1CF0802F1200656F827004E072D
:1005F000F70E0F26BE40B0434F07FF0E1E69BE40E8
:100600003043CF0802F1200646F8270010684F005B
:100610000326BE40B0431E7906F003064F00BE40DD
:10062000304310605E68012E08D05E68022E05D04F
:100630005E68112E02D05E68122E13D190684F00B2
:100640000326BE40B0434F00DE68BE40304390609A
:10065000506801268E40B0431E79C6F300168E40C6
:1006600030435060D0684F000326BE40B0434F0077
:100670009E68BE403043D0605E6806F08056B6F19A
:10068000805FA8D100BF00260096454E366846F42C
:100690008046434F3E603E46366806F480460096EC
:1006A00000BF00BF3F4E8F0856F827008E07370F58
:1006B0000F26BE40B0433C4EB24202D100262EE08F
:1006C00068E03A4EB24201D1012628E0384EB242EB
:1006D00001D1022623E0374EB24201D103261EE0AB
:1006E000354EB24201D1042619E0344EB24201D156
:1006F000052614E0324EB24201D106260FE0314EFB
:10070000B24201D107260AE02F4EB24201D108269B
:1007100005E02E4EB24201D1092600E00A268F07DD
:100720003F0FBE4030431F4E8F0846F82700284E2B
:100730003068A0435E6806F48036B6F5803F00D18D
:100740002043234E3060361D3068A0435E6806F4B7
:100750000036B6F5003F00D120431D4E361D3060F7
:10076000361D3068A0435E6806F48016B6F5801F1B
:1007700000D12043164E08363060361D3068A04345
:100780005E6806F40016B6F5001F00D12043104E37
:100790000C363060491C1029FFF416AFF8BD00007C
:1007A0004438024008380140000002400004024082
:1007B00000080240000C02400010024000140240F9
:1007C00000180240001C02400020024000240240A9
:1007D000003C014042690A408A4202D10A04826117
:1007E00000E0816170470AB1816101E00B0483611F
:1007F000704700000148006870470000300000208A
:1008000003480068034909780844014908607047B3
:10081000300000203800002010B50D48006840F47A
:1008200000700B4908600846006840F4806008606A
:100830000846006840F480700860032000F070F8FB
:100840000F2000F007F800F02BF8002010BD00008A
:10085000003C024070B504460E4800784FF47A71AF
:10086000B1FBF0F00C490968B1FBF0F5284600F047
:10087000EDFB08B1012070BD102C07D200222146EB
:10088000501E00F00EF80548046001E00120F2E778
:100890000020F0E7380000202C0000203400002069
:1008A00070472DE9F05F80460D461646002700F0A0
:1008B0007FFC074639462A46334601F00700C0F15F
:1008C000070ABAF1040F02D94FF0040A01E0C0F19F
:1008D000070AD14600F1040ABAF1070F02D24FF01D
:1008E000000A01E0A0F1030AD4464FF0010A0AFA17
:1008F00009FAAAF1010A0AEA020A0AFA0CFA4FF006
:10090000010B0BFA0CFBABF1010B0BEA030B4AEAF0
:100910000B042146404600F053FCBDE8F09F000068
:1009200000BF00F00702064B19684FF6FF0319409D
:10093000044B0B4343EA0221014B196000BF70478F
:100940000CED00E00000FA0538B5002400BF0020DF
:1009500000901D48006840F080501B490860084620
:10096000006800F08050009000BF00BF01201749D0
:100970000864FFF73FFF044607E0FFF73BFF001B5B
:10098000B0F57A7F01D9032038BD1148406800F4E2
:100990008030B0F5803FF0D101200C494864FFF76A
:1009A00029FF044607E0FFF725FF001BB0F57A7F1B
:1009B00001D90320E8E70648406800F40030B0F5AC
:1009C000003FF0D10020DFE74038024000000E4237
:1009D0000070004070B504460D460CB9012070BD92
:1009E0005848006800F00F00A84209D255490D7020
:1009F0000846006800F00F00A84201D00120EEE791
:100A0000207800F0020002281DD1207800F00400B8
:100A1000042805D14C48006840F4E0504A49086079
:100A2000207800F00800082805D14748006840F405
:100A30006040454908604448006820F0F000A16823
:100A4000084341490860207800F00100A8B36068BD
:100A5000012807D13C4808380068C0F34040B8B9C5
:100A60000120BCE76068022802D06068032807D133
:100A7000354808380068C0F3406048B90120AEE747
:100A8000314808380068C0F3400008B90120A6E7E3
:100A90002D48006820F00300616808432A49086077
:100AA000FFF7A8FE064609E0FFF7A4FE801B41F20F
:100AB0008831884202D9032091E707E02248006884
:100AC00000F00C006168B0EB810FEDD11D480068AB
:100AD00000F00F00A84209D91A490D7008460068B5
:100AE00000F00F00A84201D0012078E7207800F044
:100AF0000400042807D11448006820F4E050E1689D
:100B0000084311490860207800F00800082808D13F
:100B10000D48006820F46040216940EAC1000A499C
:100B2000086000F017F808490968C1F30311074A83
:100B3000515CC840064908600F20FFF78BFE00207B
:100B40004DE70000003C024008380240FE1100085A
:100B50002C0000202DE9F047002400250026A146A6
:100B60002548006800F00C0020B1042805D00828B2
:100B70003AD105E0DFF8849039E0DFF8849036E080
:100B80001D48001F006800F03F041B48001F00685C
:100B900000F4800078B11A481749091F0968C1F3A9
:100BA0008811A0FB01700146224600233846FFF75A
:100BB0006DFB05460EE011480F49091F0968C1F396
:100BC0008811A0FB01700146224600233846FFF73A
:100BD0005DFB05460848001F0068C0F30140401C4B
:100BE0004600B5FBF6F902E0DFF8109000BF00BF49
:100BF0004846BDE8F0870000083802400024F400B1
:100C000040787D01F8B504460CB90120F8BD207884
:100C100000F00100002874D0F948006800F00C00D2
:100C200004280DD0F648006800F00C00082813D105
:100C3000F348001F006800F48000B0F5800F0BD16E
:100C4000EF4808380068C0F34040002859D0606879
:100C5000002856D10120D9E700BF6068B0F5803F79
:100C600008D1E7480838006840F48030E449083982
:100C700008601EE06068B0F5A02F0DD1E04808388C
:100C8000006840F48020DE490839086008460068A2
:100C900040F4803008600CE0D9480838006820F43F
:100CA0008030D749083908600846006820F4802061
:100CB000086000BF606890B1FFF79CFD054606E044
:100CC000FFF798FD401B642801D903209EE7CC481C
:100CD00008380068C0F340400028F1D011E0FFF769
:100CE00089FD054606E0FFF785FD401B642801D914
:100CF00003208BE7C24808380068C0F34040002852
:100D0000F1D1207800F0020002285FD1BC480068D1
:100D100000F00C0058B1BA48006800F00C00082838
:100D20001CD1B748001F006800F48000B0B9B44877
:100D300008380068C0F3400020B1E068012801D005
:100D4000012063E7AE480838006820F0F800216908
:100D500040EAC100AA490839086037E0E06800B3FA
:100D60000120A8490860FFF745FD054606E0FFF7AA
:100D700041FD401B022801D9032047E7A04808385D
:100D80000068C0F340000028F1D09D480838006892
:100D900020F0F800216940EAC1009949083908604B
:100DA00014E0002097490860FFF724FD054606E09F
:100DB000FFF720FD401B022801D9032026E79048B9
:100DC00008380068C0F340000028F1D1207800F016
:100DD000080008282CD16069A8B101208A49086060
:100DE000FFF708FD054606E0FFF704FD401B02285B
:100DF00001D903200AE782486C300068C0F3400044
:100E00000028F1D014E000207F490860FFF7F2FCD1
:100E1000054606E0FFF7EEFC401B022801D903203F
:100E2000F4E677486C300068C0F340000028F1D148
:100E3000207800F00400042870D100267048383073
:100E4000006800F0805090B900BF002000906C480E
:100E50003830006840F080506949383108600846F1
:100E6000006800F08050009000BF00BF0126674876
:100E7000006800F48070B0B96448006840F4807085
:100E800062490860FFF7B6FC054606E0FFF7B2FCD2
:100E9000401B022801D90320B8E65C48006800F432
:100EA00080700028F2D000BFA068012808D1544803
:100EB0006830006840F001005149683108601DE069
:100EC000A06805280DD14E486830006840F0040045
:100ED0004B49683108600846006840F0010008602E
:100EE0000CE047486830006820F001004449683150
:100EF00008600846006820F00400086000BFA06891
:100F0000A8B1FFF777FC054609E0FFF773FC401B2B
:100F100041F28831884202D9032077E626E038483A
:100F200068300068C0F340000028EED013E0FFF7FF
:100F300061FC054608E0FFF75DFC401B41F288318B
:100F4000884201D9032061E62D4868300068C0F36B
:100F500040000028EFD1012E07D129483830006821
:100F600020F0805026493831086000BFA069B8B32E
:100F70002348006800F00C0008285ED0A069022811
:100F800046D100201F490866FFF734FC054606E0FD
:100F9000FFF730FC401B022801D9032036E6184831
:100FA00008380068C0F340600028F1D1D4E9070197
:100FB0000843616A40EA81110122A06AC2EB500035
:100FC00041EA00412C20005D41EA00600C49091F04
:100FD000086001200B490866FFF70CFC054607E096
:100FE0002DE0FFF707FC401B022801D903200DE686
:100FF000034808380068C0F340600028F1D01EE0C4
:101000000838024000004742800E4742007000400E
:1010100000200C490866FFF7EDFB054606E0FFF7E8
:10102000E9FB401B022801D90320EFE506480068D0
:10103000C0F340600028F2D101E00120E6E5002085
:10104000E4E50000000047420038024070B5044665
:101050002546681EB0F1807F01D301200FE0681E95
:101060004FF0E02148610F214FF0FF3000F0A8F869
:1010700000204FF0E021886107200861002070BD4A
:1010800000BFFEE700BFFEE770477047704710B52E
:10109000FFF7B6FB10BD000000B593B000BF002005
:1010A00001902748006840F08050254908600846B4
:1010B000006800F08050019000BF00BF00BF00201A
:1010C00001902048006840F440401E4908600846EE
:1010D000006800F44040019000BF00BF0120029072
:1010E00000040390022008904105099119210A91FA
:1010F0004FF4B4710B9102210C9104210D9102A8BF
:10110000FFF780FD08B1FFF738FAFFF71DFC08B1C3
:10111000FFF733FA0F200E9002200F90002010905E
:101120004FF4A05011904FF48050129005210EA85A
:10113000FFF750FC08B1FFF720FA13B000BD000024
:1011400040380240007000401448006840F47000CD
:10115000124908601248006840F001001049086018
:1011600000200F49083108600D4800680D4908400B
:101170000B4908600C48091D0860081F006820F42E
:101180008020091F0860002005490C3108604FF0DD
:1011900000600249803908607047000088ED00E077
:1011A00000380240FFFFF6FE1030002400BFFEE7CB
:1011B00002480068C0F30220704700000CED00E018
:1011C00010B5002804DB0A07130E054A135406E085
:1011D0000A07140E034A00F00F031B1FD45410BD5E
:1011E00000E400E018ED00E0FFF7C9F901E0FFF7C7
:1011F00000F9FCE74FF04070E1EE100A7047000084
:1012000000000000000001020304060708090000B6
:101210000000010203040000381200080000002052
:101220003C000000E8010008741200083C000020A7
:1012300064060000040200080000000000040240F0
:10124000020000000100000000000000010000009A
:101250000004024001000000010000000000000046
:10126000020000000024F400000000001000000054
:041270000100000079
:04000005080001AD41
:00000001FF
