:020000040800F2
:1000000060400020C101000807150008FF14000827
:100010000315000899060008FD19000800000000FB
:100020000000000000000000000000000B150008A8
:100030009D06000800000000091500080D150008C5
:10004000DB010008DB010008DB010008DB01000820
:10005000DB010008DB010008DB010008DB01000810
:10006000DB010008DB010008DB010008DB01000800
:10007000DB010008DB010008DB010008DB010008F0
:10008000DB010008DB010008DB010008DB010008E0
:10009000DB010008DB010008DB010008DB010008D0
:1000A000DB010008DB010008DB010008DB010008C0
:1000B000DB010008DB010008DB010008DB010008B0
:1000C000DB010008DB010008DB010008DB010008A0
:1000D000DB010008DB010008DB010008DB01000890
:1000E000DB010008DB010008DB010008DB01000880
:1000F000DB010008DB010008DB010008DB01000870
:10010000DB010008DB010008DB010008DB0100085F
:10011000DB010008DB010008DB010008DB0100084F
:10012000DB010008DB010008DB010008DB0100083F
:10013000DB010008DB010008DB010008DB0100082F
:10014000DB010008DB010008DB010008DB0100081F
:10015000DB010008DB010008DB010008DB0100080F
:10016000DB010008DB010008DB010008DB010008FF
:10017000DB010008DB010008DB01000800000000D3
:10018000DB010008DB010008DB010008DB010008DF
:10019000DB010008DB010008DB010008DB010008CF
:1001A000DB010008DB010008DB010008DFF80CD0F0
:1001B00000F068F800480047F51E00086040002085
:1001C0000648804706480047FEE7FEE7FEE7FEE7F1
:1001D000FEE7FEE7FEE7FEE7FEE7FEE7C5150008DF
:1001E000AD0100082DE9F05F0546002092469B46D0
:1001F00088460646814640241BE02846414647463D
:10020000224600F02FF853465A46C01A914110D3A7
:1002100011461846224600F016F82D1A67EB010821
:100220004F4622460120002100F00DF817EB00098F
:100230004E41201EA4F10104DFDC484631462A4627
:100240004346BDE8F09F202A04DB203A00FA02F181
:10025000002070479140C2F1200320FA03F31943B4
:1002600090407047202A04DB203A21FA02F0002156
:10027000704721FA02F3D040C2F1200291400843B6
:1002800019467047064C074D06E0E06840F0010350
:1002900094E8070098471034AC42F6D3FFF78AFF82
:1002A000801F0008A01F000810B500F0FBF902A095
:1002B00001F0A6FB10BD00004170706C69636174B1
:1002C000696F6E204C6179657220696E6974206374
:1002D0006F6D706C65746564210D0A0010B504467D
:1002E0002146054800F030FA28B1002000F05EF900
:1002F000012000F05BF910BD0000002010B500F0F7
:100300001FFA0149086010BD0000002010B50A481E
:100310000078012802D002280BD105E0FFF7EEFF9C
:1003200002200549087004E04FF4FA70FFF7D6FF89
:1003300000BF00BF10BD00000400002070B51548CC
:100340000468001D0568001D066823462A463146DC
:1003500011A001F055FB1DA001F052FB1C4801F05B
:100360004FFB1CA123A001F04BFB27A128A001F00B
:1003700047FB2CA12EA001F043FB00F0BBF931A0FC
:1003800001F03EFB31A001F03BFB114801F038FBCE
:1003900070BD0000107AFF1F0D0A435055203A200F
:1003A00053544D333246343239494754362C204C5D
:1003B0005146503137362C20554944203D202530B8
:1003C0003858202530385820253038580A0D00007C
:1003D0003C1F000854656D706C61746520666F7217
:1003E0002073746D3332663432392D61706F6C6CEA
:1003F0006F7300002A20B3CCD0F2C3FBB3C6202019
:10040000203A2025730D0A00312E302E30000000D6
:100410002A20B3CCD0F2B0E6B1BE2020203A20256D
:10042000730D0A00323031392D30332D3233000054
:100430002A20B7A2B2BCC8D5C6DA2020203A20258F
:10044000730D0A002A200D0A000000002A20436FC5
:1004500070797269676874202863292032303138D6
:100460002D323031392058434D472047726F757017
:100470000D0A000010B500F0BFFA01F04BF80A2099
:1004800000F072F900F01EF800F0F0F801A001F0A1
:10049000B7FA10BD4861726477617265204162737A
:1004A0007472616374696F6E204C61796572206942
:1004B0006E697420636F6D706C65746564210D0ADC
:1004C0000000000010B586B0002456E000BF7CB9E3
:1004D00000BF002000902B48006840F0020029492E
:1004E00008600846006800F00200009000BF11E0BC
:1004F000012C0FD100BF002000902248006840F07E
:100500000200204908600846006800F002000090E0
:1005100000BF00BF00BF1C4800EB0410C06858B10A
:10052000194A02EB04129188174A02EB0412106870
:10053000012200F044FA0AE0134A02EB0412918807
:10054000114A02EB04121068002200F038FA0E483B
:1005500000EB0410808801900B4800EB04108068C9
:1005600002900120039000200490074901EB041140
:10057000086801A900F00CF9641C022CA6D306B08F
:1005800010BD000030380240041F000810B50446BA
:10059000054A02EB04129188034A02EB0412106828
:1005A000012200F00CFA10BD041F000810B504462B
:1005B000054A02EB04129188034A02EB0412106808
:1005C00000F0F4F910BD0000041F000810B500F0A1
:1005D000FDF90446210EC4F30723C4F3074205A026
:1005E00001F00EFA00231A46012110A001F008FACA
:1005F00010BD00002A2048414CB0E6B1BE203A2090
:100600005625642E25642E2564202853544D3332FC
:10061000463478782048414C2064726976657220AF
:1006200076657273696F6E20290D0A002A20425385
:1006300050B0E6B1BE203A205625642E25642E2502
:1006400064202853544D3332463432392D41706F73
:100650006C6C6F204253502076657273696F6E2008
:10066000290D0A0010B500F0B5F910BD10B5084805
:10067000084908604FF4E130486000210548816076
:10068000C160016181610C21416100F00FFE10BD6C
:10069000004400401C00002000BFFEE7704700BF80
:1006A000FEE7000010B5FFF7E5FE00F019F802A024
:1006B00001F0A6F910BD000046756E6374696F6E97
:1006C000204D6F64756C65204C6179657220696E90
:1006D000697420636F6D706C65746564210D0A0028
:1006E00010B5FFF7EFFE0020FFF750FF0120FFF7E6
:1006F0004DFF10BD10B5FFF769FF00231A46012119
:1007000001A001F07DF910BD2A20464D4CB0E6B1A4
:10071000BE203A205625642E25642E2564202846C6
:10072000756E6374696F6E204D6F64756C65204CD7
:10073000617965722076657273696F6E290D0A00A2
:1007400010B5FFF78FFF10BD70B504460D46FFF7DB
:1007500089FF06462068301AA84201D2002070BDE9
:1007600026600120FBE7000070B5044600F032F976
:1007700006462546681C10B104480078054400BFB1
:1007800000F028F9801BA842FAD370BD14000020A5
:10079000F8B502460B460025002400200021E6E0C3
:1007A000012606FA01F51E6806EA0504AC4273D17B
:1007B0005E68022E02D05E68122E13D1CF0802F1BD
:1007C000200656F827004E07F70E0F26BE40B0430E
:1007D0004F07FF0E1E69BE403043CF0802F12006CE
:1007E00046F8270010684F000326BE40B0431E792C
:1007F00006F003064F00BE40304310605E68012ED5
:1008000008D05E68022E05D05E68112E02D05E68A8
:10081000122E13D190684F000326BE40B0434F0004
:10082000DE68BE4030439060506801268E40B04381
:100830001E79C6F300168E4030435060D0684F00DA
:100840000326BE40B0434F009E68BE403043D06098
:100850005E6806F08056B6F1805FA8D100BF002622
:100860000096454E366846F48046434F3E603E460D
:10087000366806F48046009600BF00BF3F4E8F08E2
:1008800056F827008E07370F0F26BE40B0433C4E68
:10089000B24202D100262EE068E03A4EB24201D1C7
:1008A000012628E0384EB24201D1022623E0374E1D
:1008B000B24201D103261EE0354EB24201D10426D8
:1008C00019E0344EB24201D1052614E0324EB24254
:1008D00001D106260FE0314EB24201D107260AE0CF
:1008E0002F4EB24201D1082605E02E4EB24201D170
:1008F000092600E00A268F073F0FBE4030431F4EF7
:100900008F0846F82700284E3068A0435E6806F43A
:100910008036B6F5803F00D12043234E3060361D2F
:100920003068A0435E6806F40036B6F5003F00D19B
:1009300020431D4E361D3060361D3068A0435E6872
:1009400006F48016B6F5801F00D12043164E0836F7
:100950003060361D3068A0435E6806F40016B6F5B8
:10096000001F00D12043104E0C363060491C102966
:10097000FFF416AFF8BD00004438024008380140CB
:10098000000002400004024000080240000C024047
:10099000001002400014024000180240001C0240F7
:1009A0000020024000240240003C014042690A400D
:1009B0008A4202D10A04826100E0816170470AB173
:1009C000816101E00B0483617047000000487047BB
:1009D0000005070101480068704700000C00002076
:1009E00003480068034909780844014908607047D2
:1009F0000C0000201400002010B50D48006840F4E1
:100A000000700B4908600846006840F48060086088
:100A10000846006840F480700860032000F070F819
:100A20000F2000F007F800F02BF8002010BD0000A8
:100A3000003C024070B504460E4800784FF47A71CD
:100A4000B1FBF0F00C490968B1FBF0F5284600F065
:100A500013FC08B1012070BD102C07D200222146E2
:100A6000501E00F00EF80548046001E00120F2E796
:100A70000020F0E7140000200800002010000020F3
:100A800070472DE9F05F80460D461646002700F0BE
:100A9000C7FF074639462A46334601F00700C0F132
:100AA000070ABAF1040F02D94FF0040A01E0C0F1BD
:100AB000070AD14600F1040ABAF1070F02D24FF03B
:100AC000000A01E0A0F1030AD4464FF0010A0AFA35
:100AD00009FAAAF1010A0AEA020A0AFA0CFA4FF024
:100AE000010B0BFA0CFBABF1010B0BEA030B4AEA0F
:100AF0000B042146404600F09BFFBDE8F09F00003C
:100B000000BF00F00702064B19684FF6FF031940BB
:100B1000044B0B4343EA0221014B196000BF7047AD
:100B20000CED00E00000FA0538B5002400BF0020FD
:100B300000901D48006840F080501B49086008463E
:100B4000006800F08050009000BF00BF01201749EE
:100B50000864FFF73FFF044607E0FFF73BFF001B79
:100B6000B0F57A7F01D9032038BD1148406800F400
:100B70008030B0F5803FF0D101200C494864FFF788
:100B800029FF044607E0FFF725FF001BB0F57A7F39
:100B900001D90320E8E70648406800F40030B0F5CA
:100BA000003FF0D10020DFE74038024000000E4255
:100BB0000070004070B504460D460CB9012070BDB0
:100BC0005848006800F00F00A84209D255490D703E
:100BD0000846006800F00F00A84201D00120EEE7AF
:100BE000207800F0020002281DD1207800F00400D7
:100BF000042805D14C48006840F4E0504A49086098
:100C0000207800F00800082805D14748006840F423
:100C10006040454908604448006820F0F000A16841
:100C2000084341490860207800F00100A8B36068DB
:100C3000012807D13C4808380068C0F34040B8B9E3
:100C40000120BCE76068022802D06068032807D151
:100C5000354808380068C0F3406048B90120AEE765
:100C6000314808380068C0F3400008B90120A6E701
:100C70002D48006820F00300616808432A49086095
:100C8000FFF7A8FE064609E0FFF7A4FE801B41F22D
:100C90008831884202D9032091E707E022480068A2
:100CA00000F00C006168B0EB810FEDD11D480068C9
:100CB00000F00F00A84209D91A490D7008460068D3
:100CC00000F00F00A84201D0012078E7207800F062
:100CD0000400042807D11448006820F4E050E168BB
:100CE000084311490860207800F00800082808D15E
:100CF0000D48006820F46040216940EAC1000A49BB
:100D0000086000F03DF808490968C1F30311074A7B
:100D1000515CC840064908600F20FFF78BFE002099
:100D20004DE70000003C024008380240241F000844
:100D300008000020014800687047000008000020FB
:100D400000B5FFF7F7FF04490968C1F38221034AA0
:100D5000515CC84000BD000008380240341F000844
:100D600000B5FFF7E7FF04490968C1F34231034AC0
:100D7000515CC84000BD000008380240341F000824
:100D80002DE9F047002400250026A14625480068EB
:100D900000F00C0020B1042805D008283AD105E065
:100DA000DFF8849039E0DFF8849036E01D48001FBA
:100DB000006800F03F041B48001F006800F480003A
:100DC00078B11A481749091F0968C1F38811A0FBB7
:100DD00001700146224600233846FFF703FA054614
:100DE0000EE011480F49091F0968C1F38811A0FBE3
:100DF00001700146224600233846FFF7F3F9054605
:100E00000848001F0068C0F30140401C4600B5FBC5
:100E1000F6F902E0DFF8109000BF00BF4846BDE8D9
:100E2000F0870000083802400024F40040787D017B
:100E3000F8B504460CB90120F8BD207800F0010097
:100E4000002874D0F948006800F00C0004280DD088
:100E5000F648006800F00C00082813D1F348001F82
:100E6000006800F48000B0F5800F0BD1EF4808381F
:100E70000068C0F34040002859D06068002856D16F
:100E80000120D9E700BF6068B0F5803F08D1E7488E
:100E90000838006840F48030E449083908601EE0F2
:100EA0006068B0F5A02F0DD1E0480838006840F424
:100EB0008020DE49083908600846006840F4803028
:100EC00008600CE0D9480838006820F48030D74921
:100ED000083908600846006820F48020086000BFD8
:100EE000606890B1FFF776FD054606E0FFF772FDFA
:100EF000401B642801D903209EE7CC4808380068CD
:100F0000C0F340400028F1D011E0FFF763FD054633
:100F100006E0FFF75FFD401B642801D903208BE743
:100F2000C24808380068C0F340400028F1D120785A
:100F300000F0020002285FD1BC48006800F00C00FD
:100F400058B1BA48006800F00C0008281CD1B74816
:100F5000001F006800F48000B0B9B4480838006889
:100F6000C0F3400020B1E068012801D0012063E710
:100F7000AE480838006820F0F800216940EAC10056
:100F8000AA490839086037E0E06800B30120A849A1
:100F90000860FFF71FFD054606E0FFF71BFD401B3D
:100FA000022801D9032047E7A04808380068C0F3A9
:100FB00040000028F1D09D480838006820F0F80073
:100FC000216940EAC10099490839086014E000200D
:100FD00097490860FFF7FEFC054606E0FFF7FAFCBC
:100FE000401B022801D9032026E7904808380068F2
:100FF000C0F340000028F1D1207800F00800082854
:101000002CD16069A8B101208A490860FFF7E2FC91
:10101000054606E0FFF7DEFC401B022801D903204D
:101020000AE782486C300068C0F340000028F1D025
:1010300014E000207F490860FFF7CCFC054606E07D
:10104000FFF7C8FC401B022801D90320F4E67748CB
:101050006C300068C0F340000028F1D1207800F027
:101060000400042870D1002670483830006800F071
:10107000805090B900BF002000906C483830006864
:1010800040F080506949383108600846006800F037
:101090008050009000BF00BF01266748006800F440
:1010A0008070B0B96448006840F48070624908609C
:1010B000FFF790FC054606E0FFF78CFC401B02287A
:1010C00001D90320B8E65C48006800F4807000286D
:1010D000F2D000BFA068012808D1544868300068E9
:1010E00040F001005149683108601DE0A068052802
:1010F0000DD14E486830006840F004004B4968311B
:1011000008600846006840F0010008600CE04748AD
:101110006830006820F001004449683108600846E2
:10112000006820F00400086000BFA068A8B1FFF7C5
:1011300051FC054609E0FFF74DFC401B41F28831A8
:10114000884202D9032077E626E0384868300068F4
:10115000C0F340000028EED013E0FFF73BFC05464B
:1011600008E0FFF737FC401B41F28831884201D983
:10117000032061E62D4868300068C0F34000002875
:10118000EFD1012E07D129483830006820F0805077
:1011900026493831086000BFA069B8B32348006809
:1011A00000F00C0008285ED0A069022846D100207B
:1011B0001F490866FFF70EFC054606E0FFF70AFC2C
:1011C000401B022801D9032036E618480838006879
:1011D000C0F340600028F1D1D4E907010843616AF7
:1011E00040EA81110122A06AC2EB500041EA0041AD
:1011F0002C20005D41EA00600C49091F08600120B5
:101200000B490866FFF7E6FB054607E02DE0FFF710
:10121000E1FB401B022801D903200DE603480838F2
:101220000068C0F340600028F1D01EE0083802409A
:1012300000004742800E47420070004000200C49E9
:101240000866FFF7C7FB054606E0FFF7C3FB401B38
:10125000022801D90320EFE506480068C0F340608A
:101260000028F2D101E00120E6E50020E4E50000DD
:10127000000047420038024070B504462546681E0B
:10128000B0F1807F01D301200FE0681E4FF0E02114
:1012900048610F214FF0FF3000F0CAFB00204FF0F3
:1012A000E021886107200861002070BD10B5044668
:1012B0000CB9012010BDA06900B100E000BF94F896
:1012C000390028B9002084F83800204600F028F8BA
:1012D000242084F839002068C06820F40050216878
:1012E000C860204600F0A0F92068006920F4904012
:1012F000216808612068406920F02A00216848615F
:101300002068C06840F400502168C8600020E06395
:10131000202084F8390084F83A000020CAE7000051
:1013200010B586B004463C492068884237D100BFDA
:10133000002000903948006840F0010037490860FB
:101340000846006800F00100009000BF00BF00BF29
:101350000020009031481430006840F010002F4900
:10136000143108600846006800F01000009000BFCB
:1013700000BF481501900220029001200390022036
:1013800004900720059001A92548FFF701FA4FF4C2
:101390008060019001A92248FFF7FAF939E021495C
:1013A0002068884235D100BF002000901B480068AB
:1013B00040F00100194908600846006800F001008B
:1013C000009000BF00BF00BF002000901348103005
:1013D000006840F400301149103108600846006888
:1013E00000F40030009000BF00BF042001900220F4
:1013F000029001200390022004900720059001A98B
:101400000748FFF7C5F90820019001A90448FFF734
:10141000BFF906B010BD0000001001403038024096
:1014200000000240004400402DE9F84304460D4608
:1014300016461F464FF0000994F8390020285CD169
:1014400005B116B90120BDE8F88300BF94F8380053
:10145000012801D10220F6E7012084F8380000BFFE
:101460000020E063212084F83900FFF7B3FA8146B9
:10147000A684E6842BE0E08C401EE084A068B0F5F2
:10148000805F16D14B46002280212046009700F055
:101490007FFA08B10320D6E7A846B8F80000C0F3E9
:1014A000080021684860206908B9AD1C0FE06D1C78
:1014B0000DE04B46002280212046009700F068FA9C
:1014C00008B10320BFE715F8010B21684860E08CE4
:1014D0000028D0D14B46002240212046009700F042
:1014E00057FA08B10320AEE7202084F8390000BF86
:1014F000002084F8380000BFA5E70220A3E700BF62
:10150000FEE700BFFEE770477047704710B5FFF772
:1015100067FA10BD00B593B000BF002001902748C6
:10152000006840F08050254908600846006800F0D7
:101530008050019000BF00BF00BF002001902048F4
:10154000006840F440401E4908600846006800F406
:101550004040019000BF00BF0120029000040390B2
:10156000022008904105099119210A914FF4B471A4
:101570000B9102210C9108210D9102A8FFF758FC54
:1015800008B1FFF78CF8FFF7CFFA08B1FFF787F83B
:101590000F200E9002200F90002010904FF4A050CA
:1015A00011904FF48050129005210EA8FFF702FB16
:1015B00008B1FFF774F813B000BD000040380240D6
:1015C000007000401448006840F470001249086040
:1015D0001248006840F001001049086000200F49DF
:1015E000083108600D4800680D4908400B49086043
:1015F0000C48091D0860081F006820F48020091F9E
:101600000860002005490C3108604FF00060024975
:10161000803908607047000088ED00E00038024023
:10162000FFFFF6FE103000242DE9F041044620684B
:10163000006920F44050E16808432168086121698D
:10164000A068084361690843E16940EA0105206830
:10165000C06849F20C61884328432168C86020684B
:10166000406920F44070A169084321684861E0693D
:10167000B0F5004F7ED1C4492068884203D0C349E9
:10168000206888425DD1FFF76BFB00EBC00101EBE6
:10169000001061684900B0FBF1F06421B0FBF1F08B
:1016A0000601FFF75DFB00EBC00101EB0010616874
:1016B0004900B0FBF1F7FFF753FB00EBC00101EB72
:1016C000001061684900B0FBF1F06421B0FBF1F05B
:1016D00000EBC00101EB0010A7EB8000322101EB11
:1016E000C0006421B0FBF1F000F0F80006EB40060A
:1016F000FFF736FB00EBC00101EB00106168490009
:10170000B0FBF1F7FFF72CFB00EBC00101EB001081
:1017100061684900B0FBF1F06421B0FBF1F000EB2F
:10172000C00101EB0010A7EB8000322101EBC000EB
:101730006421B0FBF1F000F00700304421688860BC
:1017400020E1FFF7FDFA00EBC00101EB001061683A
:101750004900B0FBF1F06421B0FBF1F00601FFF7A6
:10176000EFFA00EBC00101EB001061684900B0FB2B
:10177000F1F700E045E0FFF7E3FA00EBC00101EB11
:10178000001061684900B0FBF1F06421B0FBF1F09A
:1017900000EBC00101EB0010A7EB8000322101EB50
:1017A000C0006421B0FBF1F000F0F80006EB400649
:1017B000FFF7C6FA00EBC00101EB001061684900B9
:1017C000B0FBF1F7FFF7BCFA00EBC00101EB001032
:1017D00061684900B0FBF1F06421B0FBF1F000EB6F
:1017E000C00101EB0010A7EB8000322101EBC0002B
:1017F0006421B0FBF1F000F00700304421688860FC
:10180000C0E061492068884203D06049206888426E
:101810005CD1FFF7A5FA00EBC00101EB0010616895
:101820008900B0FBF1F6FFF79BFA00EBC00101EB7A
:10183000001061688900B0FBF1F06421B0FBF1F0A9
:1018400000EBC00101EB0010A6EB8000322101EBA0
:1018500000106421B0FBF1F000F0F006FFF780FA11
:1018600000EBC00101EB001061688900B0FBF1F0F2
:101870006421B0FBF1F006EB0016FFF771FA00EB04
:10188000C00101EB001061688900B0FBF1F7FFF7C0
:1018900067FA00EBC00101EB001061688900B0FB42
:1018A000F1F06421B0FBF1F000EBC00101EB00109E
:1018B000A7EB8000322101EB00106421B0FBF1F0B6
:1018C00000F00F003044216888605BE0FFF738FAD1
:1018D00000EBC00101EB001061688900B0FBF1F67C
:1018E000FFF72EFA00EBC00101EB001061688900E0
:1018F000B0FBF1F06421B0FBF1F000EBC00101EBB3
:101900000010A6EB8000322101EB00106421B0FB37
:10191000F1F000F0F006FFF713FA00EBC00101EB65
:10192000001061688900B0FBF1F06421B0FBF1F0B8
:1019300006EB0016FFF704FA00EBC00101EB001004
:1019400061688900B0FBF1F7FFF7FAF900EBC0011D
:1019500001EB001061688900B0FBF1F06421B0FB7D
:10196000F1F000EBC00101EB0010A7EB8000322189
:1019700001EB00106421B0FBF1F000F00F003044E7
:1019800021688860BDE8F08100100140001401402A
:101990002DE9F04104460D4617469846069E21E083
:1019A000701CF8B12EB1FFF715F8A0EB0800B0429B
:1019B00018D92068C06820F4D0702168C8602068F9
:1019C000406920F0010021684861202084F8390036
:1019D00084F83A0000BF002084F8380000BF0320DC
:1019E000BDE8F081206800682840A84201D10120AC
:1019F00000E00020B842D3D00020F1E700BFFEE7AE
:101A00000FB4054B10B503A9044A029800F034F84E
:101A100010BC5DF814FB0000DD1E0008180000205B
:101A200002480068C0F30220704700000CED00E09F
:101A300010B5002804DB0A07130E054A135406E00C
:101A40000A07140E034A00F00F031B1FD45410BDE5
:101A500000E400E018ED00E002E008C8121F08C131
:101A6000002AFAD170477047002001E001C1121F1F
:101A7000002AFBD1704700002DE9FF4F8DB00F46C3
:101A80000546002606E025280BD0DDE90F12904719
:101A90006D1C761C28780028F5D111B03046BDE8C1
:101AA000F08F0024A246A1460122EC4900E0044345
:101AB00015F8013F203B02FA03F00842F7D12878DD
:101AC0002A2810D06FF02F022878A0F130010929C0
:101AD00014D80AEB8A0102EB410144F0020400EB46
:101AE000010A6D1CF0E701CF5FEA000A03D544F458
:101AF0000054CAF1000A44F002046D1C28782E2814
:101B000017D115F8010F44F004042A280ED06FF005
:101B10002F022878A0F1300109290AD809EB8901A0
:101B200002EB410100EB01096D1CF2E757F8049B41
:101B30006D1C28786C280FD006DC4C2817D068283C
:101B40000DD06A2814D104E0742810D07A280FD15F
:101B50000DE044F400140AE044F4801401E044F47D
:101B600040146978814202D104F580146D1C6D1C0B
:101B70002A786E2A1FD00CDC632A31D004DC002ABC
:101B80008BD0582A11D1A3E0642A68D0692A0CD1DD
:101B900065E0732A2ED004DC6F2A73D0702A04D13A
:101BA0009BE0752A6FD0782A6ED01046DDE90F12BF
:101BB0009047761C50E1C4F30250022806D0032857
:101BC00009D0042801CF09D0066045E101CFF11703
:101BD000C0E9006140E101CF06803DE106703BE1D4
:101BE00017F8040B8DF8000000208DF80100EB467B
:101BF000012003E057F804BB4FF0FF3061074FF0BE
:101C0000000102D40DE008F10101884649450FDAD0
:101C10008045F8DB1BF808100029F4D108E008F132
:101C2000010188468142FADB1BF808100029F6D131
:101C3000DDE90F23AAEB08008146214600F036F9C2
:101C4000304400EB080604E0DDE90F121BF8010B3D
:101C50009047B8F10108F7D221464846F7E00A213B
:101C6000C4F302534FF0000B0891022B04D001CFB4
:101C7000C117032B09D00AE0FF1D27F00707F7E87B
:101C8000020108E032E01FE020E000B2C117042B9F
:101C900001D140B2C117031E71F1000307DA4FF002
:101CA000000CD0EB0C006CEB01012D2302E02305AE
:101CB00004D52B238DF82430012303E0E30701D062
:101CC0002023F7E7984658E00A2110E010210EE0A3
:101CD00010204FF0000B08900CE010214FF0000B8B
:101CE00044F004044FF00809089103E008214FF084
:101CF000000B0891C4F30253022B04D001CF002142
:101D0000032B06D006E0FF1D27F00707F7E80201C6
:101D100003E080B2042B00D1C0B24FF000082307CB
:101D20002BD5702A07D0DDF820C08CF0100C5CEAAF
:101D30000B0C05D00EE040238DF82430012308E081
:101D400050EA010306D030238DF824308DF8252089
:101D500002239846DDF820C08CF0080C5CEA0B0CDE
:101D60000BD150EA010301D1630706D530238DF86A
:101D700024304FF00108A9F10109582A04D038A2F3
:101D80000B9208AA0A920BE03AA2F9E75B46089A7E
:101D9000FEF728FA0B9B9B5C0A9A521E0A9213705C
:101DA00050EA0102F2D10A98ADEB000000F1200BDD
:101DB000600702D524F4803401E04FF00109D945D1
:101DC00002DDA9EB0B0000E0002000EB0B01414419
:101DD0000890AAEB010AE00306D4DDE90F232146AF
:101DE000504600F063F806444FF0000908E009A9E6
:101DF00011F80900DDE90F12904709F10109761C7D
:101E0000C145F4DBE0030CD5DDE90F232146504644
:101E100000F04CF8064404E0DDE90F123020904752
:101E2000761C0899481E08900029F5DC08E00A98FD
:101E30000A990078491C0A91DDE90F129047761C37
:101E4000BBF10001ABF1010BF1DC21465046DDE9AD
:101E50000F2300F019F806446D1C1BE60928010049
:101E60003031323334353637383961626364656610
:101E700000000000303132333435363738394142D2
:101E800043444546000000002DE9F041044600258A
:101E90001E461746880404D405E039462020B04782
:101EA0006D1C641EF9D52846BDE8F0812DE9F0418E
:101EB000044600251E469046C80301D5302700E0A1
:101EC0002027880404D505E041463846B0476D1CFC
:101ED000641EF9D52846BDE8F081000013B50C4614
:101EE0000223012269460248FFF79EFA00981CBDB2
:101EF0001C000020FEF7D8F9FEF720FA01E0FEF7FB
:101F000005FAFCE7000402400200000001000000A6
:101F10000000000000040240010000000100000079
:101F200000000000000000000000000001020304A7
:101F30000607080900000000010203042A2A2A2AD1
:101F40002A2A2A2A2A2A2A2A2A2A2A2A2A2A2A2AF1
:101F50002A2A2A2A2A2A2A2A2A2A2A2A2A2A2A2AE1
:101F60002A2A2A2A2A2A2A2A2A2A2A2A2A2A2A2AD1
:101F70002A2A2A2A2A2A2A2A2A2A0D0A00000000A6
:101F8000A01F0008000000201C000000581A0008D4
:101F9000BC1F00081C00002044400000681A000814
:101FA00000000000010000000024F4000000000018
:0C1FB00010000000010000000000000014
:04000005080001AD41
:00000001FF
